:020000040800F2
:10000000680600207D020008171C00084F14000835
:10001000151C00084B140008E11D0008000000003A
:10002000000000000000000000000000011D0008AA
:100030004D14000800000000191C0008031D0008F2
:10004000970200089702000897020008970200082C
:10005000970200089702000897020008970200081C
:10006000970200089702000897020008970200080C
:1000700097020008970200089702000897020008FC
:1000800097020008970200089702000897020008EC
:1000900097020008970200089702000897020008DC
:1000A00097020008970200089702000897020008CC
:1000B00097020008970200089702000897020008BC
:1000C00097020008970200089702000897020008AC
:1000D000970200089702000897020008970200089C
:1000E000970200089702000897020008970200088C
:1000F000970200089702000897020008970200087C
:10010000970200089702000897020008970200086B
:10011000970200089702000897020008970200085B
:10012000970200089702000897020008970200084B
:10013000970200080000000000000000970200087D
:10014000970200089702000897020008970200082B
:10015000970200089702000897020008970200081B
:10016000970200089702000897020008970200080B
:10017000970200089702000897020008000000009C
:1001800000000000970200080000000000000000CE
:10019000970200080000000000000000970200081D
:1001A00000000000000000000000000097020008AE
:1001B00097020008970200089702000897020008BB
:1001C0009702000800F002F800F049F80AA090E851
:1001D000000C82448344AAF10107DA4501D100F002
:1001E0003EF8AFF2090EBAE80F0013F0010F18BF86
:1001F000FB1A43F001031847F42100001422000009
:10020000103A24BF78C878C1FAD8520724BF30C842
:1002100030C144BF04680C60704700000023002414
:1002200000250026103A28BF78C1FBD8520728BF06
:1002300030C148BF0B607047662902F07E80002005
:1002400070471FB502F06FF800F0A2FB0400002019
:10025000002101F09BFEE0601FBD10B510BD00F055
:1002600097FC1146FFF7EDFF01F0DAFD00F0B5FC59
:1002700003B4FFF7F2FF03BC00F0F8FC0948804725
:1002800009480047FEE7FEE7FEE7FEE7FEE7FEE778
:10029000FEE7FEE7FEE7FEE704480549054A064B90
:1002A00070470000AD1D0008C5010008680000206F
:1002B00068060020680200206802002053EA020C51
:1002C00000F069802DE9F04B4FF00006002B1FBFB6
:1002D000B3FA83F503FA05F424FA05F65E4012BF7B
:1002E0001643B2FA82F502FA05F4C5F120051EBFE5
:1002F00022FA05FC44EA0C04203556EA044C4FEA85
:10030000144418BF641C4FF000084FF000099042DD
:1003100071EB030C39D3002919BFB1FA81F701FA47
:1003200007F6B0FA80F700FA07F6C7F120071EBFFC
:1003300020FA07FC46EA0C062037B6FBF4FCA7EBD4
:100340000507103F07F01F0BCBF120060CFA0BFB43
:100350002CFA06F644BFB3460026202FA4BF5E4603
:100360004FF0000B5BEA060C08BF4FF0010B19EBD6
:100370000B09ABFB027C48EB0608C01B06FB02CC5A
:100380000BFB03CC71EB0C01C1E70B460246414667
:100390004846BDE8F08B13B54FF000004FF0000168
:1003A000AFF30080BDE81C40704700000FB41CB5DF
:1003B000074B06AA7B4469460090059800F0CFFAE7
:1003C0000020694600F0DEFA1CBC5DF814FB00005A
:1003D000CD0500002DE9F0474FF0000A894604469C
:1003E000C0F820A02046E1688847002876D025285C
:1003F00006D0D4E901219047206A401C2062F1E731
:10040000E168204600258847C4F81CA0064600275E
:10041000C4F818A02A2E09D0304601F0FAFC38B3EF
:1004200004EB8708303EC8F8186019E059F8041B3F
:10043000204604EB87029161E1688847012F064658
:1004400018D1E069002820DA25F020051DE0D8F851
:10045000180000EB800006EB40003038C8F81800A8
:100460002046E1688847064601F0D3FC0028EED11B
:10047000012F0AD02E2E08D12046E16888477F1C24
:100480000646022F45F02005C4DBA069002803DAE8
:10049000404245F00105A061E80701D025F01005B4
:1004A000B6B1A6F14100192802D8203645F40065FE
:1004B0004A463146204625604D46FFF7BDFE58B1FD
:1004C000012806D0ED1D25F0070000F1080989E795
:1004D00004E005F1040985E730468AE7206ABDE8B3
:1004E000F0874FF0000200B5134694469646203937
:1004F00022BFA0E80C50A0E80C50B1F12001BFF4DD
:10050000F7AF090728BFA0E80C5048BF0CC05DF842
:1005100004EB890028BF40F8042B08BF704748BF90
:1005200020F8022B11F0804F18BF00F8012B704704
:1005300070477047704770472DE9FF4F0C461E46C5
:100540004FF0FF378BB0D2E90001DDF860800A90F0
:100550008A46C1F30A5505B93D46002108464FF0C9
:100560000000BAF1000F00F4400005DA00EB800053
:100570004FF4400101EA50004FEA9059B9F1010FE0
:1005800000DDB9460A9850EA4A000ED044F61050F1
:10059000A5F2FF3545432F14B8F1000F1ED0754268
:1005A000291E1EDDC9F100021CE0B8F1010F4FF059
:1005B000000001D0302103E0F24305E02154401C4B
:1005C000B042FBDB30460022002121540B99C1F8D8
:1005D0000880C1E900200FB0BDE8F08FBD1B6D1C85
:1005E000DEE74A4600DA694206A800F05BFA06AB8D
:1005F00093E8070003AB83E8070050460A9900F030
:100600003CFB8DE80700A0F500501F3800900398D0
:10061000002D0ADD42F21F014A460844002303A9C7
:100620000390684600F0A5FD09E0A0F500504A4699
:100630001F38002303A90390684600F0AFFD8DE842
:1006400007000004000C03D04FF0FF30410800E029
:100650001046B8F1000F03D00022009215461EE0AC
:10066000751E05D400F098F9303262556D1EF9D52B
:10067000B3460122084302D000227F1C04E0207808
:10068000302801D100227F1E002A099784D01DE066
:10069000112D07DA00F080F9303262556D1C50EAF6
:1006A0000102F5D1084302D00098C8B10EE0002144
:1006B000681E05E0235C625C63542254401E491CA2
:1006C0008142F7DBAB46A81B401E0990002004F8CE
:1006D0000B000B98099AC0F80880C0E9002B7AE754
:1006E00011264FF0000857E72DE9F04F88460446E1
:1006F000D21D22F0070191B0D1E90001CDE90A0134
:1007000001F06FFB02460B98C00F01D02D2007E0CF
:100710002068810701D52B2002E0202101EAC000DA
:10072000032A099001D0072A05DB034641462046EB
:1007300000F078F90BE12078800601D5E06900E04F
:100740000620B8F1650F814606D0B8F1660F18D0C3
:10075000B8F1670F70D131E00020B9F1110F0090AE
:1007600001DB112301E009F101030AAA01A90CA888
:10077000FFF7E2FEDDE90C70002609F10105834672
:1007800047E001204B4600904FF000470AAA01A91C
:100790000CA8FFF7D1FEDDE90DB00C995D460026EF
:1007A00010B909F101000D18B9EB050003D4C0F12F
:1007B000FF3609F10105A5EB09002BE0B9F1010FA6
:1007C00001DA4FF001090020B9F1110F00904846FD
:1007D00001DD112300E003460AAA01A90CA8FFF7D6
:1007E000ABFEDDE90C704D460026834620780007FD
:1007F0000AD4AB4500DA5D4601A8012D04DD41199C
:1008000011F8011C302907D04F4502DA17F1040F07
:1008100004DA012082460FE06D1EEEE7002F02DCB5
:10082000ED1B3E4403E0781CA84200DD7D1CB81B94
:1008300000F1010A4FF000472078000703D4AA45D1
:1008400001DB4FF0FF3A0021B7F1004F0DF14308F3
:100850008DF8431024D002202B23002F01DA7F4291
:100860002D230A21021EA0F1010000DC5FB197FBDD
:10087000F1FC97FBF1F201FB1C7C17460CF1300CEC
:1008800008F801CDEEE7A8F1010003702188090501
:1008900001D5452100E06521A0F1010800F8011C07
:1008A00009980FA9A1EB0807FF1D00B1012041190C
:1008B00001EBEA70A1693844081A401EA061207853
:1008C000C00602D42046AFF30080099828B1D4E9CD
:1008D00001219047206A401C20622078C00622D562
:1008E0002046AFF300801EE0002E04DBB34502DD9E
:1008F00001A8805D00E03020D4E901219047206A02
:10090000401C2062761CAAF101005FEA000A0AD1AD
:1009100000F03EF8C0680168405CD4E901219047CE
:10092000206A401C2062281EA5F10105DCDC07E0DE
:10093000D4E9012118F8010B9047206A401C20627D
:10094000381EA7F10107F3DC2046AFF30080032037
:1009500011B041E601694A1C02610878704700B590
:100960008FB0CDE901310021059105497944CDE9E8
:10097000031011466846FFF72DFD0FB000BD0000C3
:10098000E5FFFFFF0A6802F8010B0A6070470000EC
:10099000004870472400002030B5B0F10A024FEA49
:1009A000900E71F100034EEA817EB0EB0E0061EB18
:1009B00091014FEA101E4EEA017E10EB0E0041EB52
:1009C00011114FEA102E4EEA016E10EB0E0041EBB2
:1009D00011214FEA104E4EEA014E10EB0E0041EB92
:1009E0001141401841F100014FEAD00040EA417046
:1009F0004FEAD10110EB80054FEA810444EA90747C
:100A000044EB01046D1944EB0404521BA3414FF065
:100A1000000348BF0A3200D530BD401C41F100013F
:100A200030BD00002DE9F0411F4604460326016851
:100A3000072A01F4006004DB08B116A505E016A53D
:100A400003E008B115A500E015A521F01000206015
:100A5000A069C01EA0610FB1401EA0612046AFF387
:100A600000804FB1D4E9012138469047206A401CEC
:100A70002062C01C206206E0206AFAE7D4E9012166
:100A800015F8010B9047761EF8D22046AFF3008090
:100A9000BDE8F0814E414E006E616E00494E460049
:100AA000696E66002DE9F047814616468AB03548E2
:100AB00078440DC88DE80D0032487844801C03ACA2
:100AC0000DC884E80D0041F69B300844372190FBA7
:100AD000F1F290FBF1F5A5F1800501FB12041B3C3E
:100AE00002D56442012000E00020DFF898A0804693
:100AF0000027FA44AAF1BE0A0EE0E0070AD0324607
:100B0000684607EB470101230AEB810100F046FB31
:100B10008DE8070064107F1C002CEED1194F7F4434
:100B2000AE3F19E0E80715D007EB04100DF1180AE5
:100B300090E80E008AE80E00C068F04201D19819D2
:100B400008903246012306A903A800F027FB03AB57
:100B500083E807006D10641C002DE3D14FF0010302
:100B600032466946B8F1000F03A802D000F001FB3D
:100B700001E000F013FBC9E90001C9F808200AB040
:100B8000BDE8F087201900000048704704000020ED
:100B90007546FFF7F9FFAE4605006946534620F05B
:100BA0000700854618B020B5FFF776FBBDE820406A
:100BB0004FF000064FF000074FF000084FF0000B19
:100BC00021F00701AC46ACE8C009ACE8C009ACE8CC
:100BD000C009ACE8C0098D46704710B50446AFF3B4
:100BE00000802046BDE81040FFF742BB4FF0013CBB
:100BF00050F8042B51F8043B9A4221D1A2EB0C038C
:100C0000934313EACC1317D150F8042B51F8043B4B
:100C10009A4215D1A2EB0C03934313EACC130BD1E8
:100C200050F8042B51F8043B9A4209D1A2EB0C0373
:100C3000934313EACC13DBD04FF00000704700BFA2
:100C4000D01A01BAB1FA81F101F0180122FA01F0CB
:100C5000CB40C1F12001DBB2C0B2C01A2CFA01F3C3
:100C6000D11A914311EAC311E6D170470149182006
:100C7000ABBEFEE72600020070475FEA400C08BFEB
:100C800091F0000F4FEA8C234FEAC12243EA515101
:100C90004FEA1C5018BF00F5F0404FEA300018BF73
:100CA00041F000415FEA6C5C00F02980BCF1FF3F3D
:100CB00008BF40F080407047130C06BF12044FF08D
:100CC000100C4FF0000C130E04BF12020CF1080CB4
:100CD000130F04BF12010CF1040C930F04BF920018
:100CE0000CF1020CD30F04BF52000CF1010C1146A1
:100CF0004FF00002A0F11F00A0EB0C00704711F0B4
:100D0000004F08BF704731F000413FF4D5AF0B0CE6
:100D100006BF09044FF0100C4FF0000C0B0E04BF7F
:100D200009020CF1080C0B0F04BF09010CF1040CB3
:100D30008B0F04BF89000CF1020CCB0F04BF4900DC
:100D40000CF1010CCCF12003A0EB0C0022FA03F310
:100D500002FA0CF241EA030100F10100704720F0B1
:100D60007F4C80EA030023F07F47ACEB070303F5D9
:100D70007C5300F0004003F1FF032DE980494FEA66
:100D8000154B09B44FEA144325EA0B4E24EA0348F5
:100D90000FF2042606EB132749083E785FEA320279
:100DA00003FB0667C7F5000707FB06F64FEA543753
:100DB0004FEAD64606F1020607FB066CCCF1005C52
:100DC0004FEA1C472CEA074C07FB06F40CFB06F520
:100DD00004EB15464FEA961634BF00204FF0004052
:100DE0004FEAD13706FB07FC4FEA1C4C0CFB0BF714
:100DF000D21B03FB0CF761EB07010CFB0EF7B0EB0A
:100E0000074072EB17420CFB08F734BFA2EB074216
:100E1000B2EB074261EB17414FEA0C444FEA9107EE
:100E200006FB07FC4FEA1C4C0CFB0BF7B0EBC74072
:100E300072EB573203FB0CF734BFA2EBC742B2EBA5
:100E4000C74261EB57310CFB0EF7B0EBC70072EBFA
:100E500057720CFB08F734BFA2EBC702B2EBC70214
:100E600061EB5771039F4FEA816141EA921104EBF4
:100E7000CC044FEAD1374FEA826206FB07FC42EA14
:100E800090124FEA80604FEA1C4C0CFB0BF7D21B10
:100E900003FB0CF761EB07010CFB0EF7B0EB07400F
:100EA00072EB17420CFB08F734BFA2EB0742B2EB20
:100EB000074261EB17414FEA8C554FEA910704EB6B
:100EC0009C2406FB07FC4FEA1C4C0CFB0BF7B0EB19
:100ED000C74072EB573203FB0CF734BFA2EBC7429B
:100EE000B2EBC74261EB57310CFB0EF7B0EBC7001A
:100EF00072EB57720CFB08F734BFA2EBC702B2EBE0
:100F0000C70261EB577115EB4C254FEA816141EA4D
:100F100092114FEA82624FEAD13742EA901206FB01
:100F200007FC44F100044FEA80604FEA1C4C0CFBC4
:100F30000BF7D21B03FB0CF761EB07010CFB0EF761
:100F4000B0EB074072EB17420CFB08F734BFA2EB83
:100F50000742B2EB074261EB174115EB1C154FEA54
:100F6000813141EA92414FEA823242EA90424FEAAD
:100F700080304FEA0C7644F1000448EA03434EEA1D
:100F80000B484FF0000EB2EB080C71EB030724BFC7
:100F9000624639464EEB0E0E4FF0000B00185241E0
:100FA00049414BEB0B0BB2EB080C71EB03077BF1E8
:100FB000000B24BF624639464EEB0E0E4FF0000B7D
:100FC0000018524149414BEB0B0BB2EB080C71EB93
:100FD00003077BF1000B24BF624639464EEB0E0E31
:100FE00051EA020718BF46F0010616EB0E7655F1DE
:100FF000000254F1000103D5BDE88901BDE8008875
:10100000BDE88901BDE80048B619524141EB010134
:10101000A3F10103704780807F7E7D7C7B7A7978A5
:10102000777676757473727171706F6E6E6D6C6CAD
:101030006B6A6A696868676666656464636362614F
:101040006160605F5F5E5E5D5D5C5C5B5B5A5A59D0
:10105000595858575756565555555454535352523C
:101060005251515050504F4F4F4E4E4D4D4D4C4C94
:101070004C4B4B4B4A4A4A494949484848474747DD
:10108000474646464545454444444443434343421A
:10109000424242414141002B9C4630D477002BD044
:1010A0001CB54FEA370703B44FF010004FF01001A2
:1010B000BAF1000F06D0BCF1000FDCBF40F0080011
:1010C00040F008014FF000000FBCBDE810400BF1EC
:1010D000010BBBF1010F08BF5FEA170722BF12F136
:1010E000010211F101014FF0004143F1000300F052
:1010F000004043EA00007047F9D35708D0E746EABA
:10110000064613F1400F4FEA16461FDD13F1200F7C
:10111000DFBF16430A46002120335B42BED0C3F135
:10112000200746EA064602FA07F74FEA164646EA5D
:101130000706C3F1200722FA03F201FA07F721FAA2
:1011400003F14FF0000342EA0702A7E746EA02066E
:1011500046EA06464FEA164646EA0106BCBF46EA9C
:101160000646360C4FF000034FF000024FF000012E
:1011700094E72DE9804C9A46934670B491E8380084
:1011800007C831EA400C48BF34EA430C03D5FFF7E7
:10119000E6FDFFF780FFF0BCBDE8008C2DE9804C38
:1011A0009A46934670B491E8380007C810F0804F13
:1011B00008BF13F0804F03D100F005F8FFF76BFF75
:1011C000F0BCBDE8008C20F07F4780EA030023F0EC
:1011D0007F4C07EB0C03A3F57C5300F00040A3F118
:1011E000FE0392F0000F00F0B38095F0000F00F0C6
:1011F00077802DE901494FEA11404FEA144621EA70
:10120000004800FB06FC24EA064708FB06F607FB3D
:1012100008F800FB07F718EB06484CEB164C4FEAB2
:10122000124B18EB07484FEA15464CEB174022EAE1
:101230000B4E0BFB06FC25EA06470EFB06F607FBEA
:101240000EFE0BFB07F71EEB064E4CEB164C4FF059
:1012500000061EEB074E4CEB174B18EB0B0840F14A
:10126000000018EB0E0B58EB000840F100008F1A3D
:101270004FF000013CBFC943661B14BFB5EB040C23
:1012800000213CBFC943F61B4FEA17444EEA8E0EBD
:1012900027EA04454FEA1C4704FB07622CEA074C87
:1012A00005FB07F70CFB05F604FB0CFC16EB0746E9
:1012B00042EB174216EB0C4642EB1C421BEB0606B8
:1012C00058EB0202414146EA9E0601D5BDE801897C
:1012D000B619524141EB0101A3F10103BDE80189B7
:1012E0004FEA14454FEA114724EA054621EA074C24
:1012F00005FB07F406FB07F70CFB06F105FB0CFCEE
:1013000011EB074144EB17444FEA124711EB0C4134
:1013100044EB1C4422EA074C05FB07F206FB07F7E7
:101320000CFB06F605FB0CFC16EB074642EB1742DE
:1013300016EB0C4642EB1C456A1854F1000148BFFD
:101340007047B619524141EB0101A3F10103704707
:1013500095F0000F37D04FEA11424FEA144721EAC7
:10136000024624EA074C02FB07F106FB07F70CFBD9
:1013700006F402FB0CFC14EB074441EB17414FEA67
:10138000154714EB0C4441EB1C4125EA074C02FBCA
:1013900007F506FB07F70CFB06F602FB0CFC16EB49
:1013A000074645EB174516EB0C4645EB1C42121958
:1013B00051F1000148BF7047B619524141EB01019C
:1013C000A3F1010370474FEA14454FEA114724EA9D
:1013D000054621EA074C05FB07F106FB07F70CFB66
:1013E00006F24FF0000605FB0CFC12EB074241EB46
:1013F000174112EB0C4251EB1C4148BF7047921849
:1014000041EB0101A3F10103704710B50A222C2121
:10141000532000F05DF808222D21532000F058F8E9
:1014200041F2883000F0ECFA00221E21532000F037
:101430004FF800221F21532000F04AF800222021FB
:10144000BDE81040532000F043B8FEE77047FEE7C8
:1014500078B51E4D2A689207FCD41C4B183B1A68BD
:1014600042F480721A60194A121F1468E407FCD013
:10147000164C4600083C26601668B607FCD52E6858
:10148000009616683606FCD5216011680906FCD561
:10149000196841F4807119601168C907FCD00121F5
:1014A00001EB4000206010688007FCD5186820F42C
:1014B0008060186028680090186840F40070186018
:1014C00010684006FCD5206878BD00001854004024
:1014D00078B5144D2B689B07FCD4124C183C23683C
:1014E00043F4807323600F4B1B1F1E68F607FCD06C
:1014F00046000C48083806601E68B607FCD52D6803
:1015000000951D682D06FCD5016019680906FCD5FB
:10151000026018684007FCD5206840F40070206025
:10152000002078BD18540040044908B50A680243F9
:101530000A6009680140009108BD0000303802408F
:10154000044908B50A6802430A600968014000912D
:1015500008BD00004038024030B5264A0024057915
:101560000168131F85B371B345798DB1012D17D073
:10157000022D18D0012483792BB31E4908310A1F8C
:10158000012B18D0022B20D0032B22D0012428E0DD
:1015900015688D43156001681A680A431A60EAE706
:1015A0001D688D4301E01D680D431D6001681368CF
:1015B0000B431360DFE703680D689D430D6000680F
:1015C0001168014311600CE00DE0036815689D434C
:1015D00002E0036815681D43156000680A6802434D
:1015E0000A60204630BD1D688D431D60006811688B
:1015F0008143E7E7043C0140F0B50A680F2692FA00
:10160000A2F2B2FA82F303248AE001279F4015EA8E
:1016100007027DD04D68012D01D0022D1BD18D68B0
:10162000876892FAA2FCBCFA8CFC4FEA4C0C04FAD4
:101630000CFC27EA0C0792FAA2FCBCFA8CFC4FEADD
:101640004C0C05FA0CF52F438760CD68476855436D
:1016500097432F4347600F69D0F80CC092FAA2F568
:10166000B5FA85F54FEA450E04FA0EF52CEA050C9D
:1016700092FAA2F5B5FA85F56D00AF404CEA070C79
:10168000C0F80CC04D68022D33D192FAA2F5B5FA1C
:1016900085F5082D15D2D1F814C0056A92FAA2F783
:1016A000B7FA87F7BF0006FA07F7BD4392FAA2F729
:1016B000B7FA87F7BF000CFA07FC45EA0C0505628C
:1016C00017E0D1F814E0476A150A95FAA5FCBCFAB0
:1016D0008CFC4FEA8C0C06FA0CFC95FAA5F5B5FAD1
:1016E00085F5AD0027EA0C070EFA05FE47EA0E075E
:1016F00047624D68076892FAA2FCBCFA8CFC4FEA7C
:101700004C0C04FA0CFE27EA0E0792FAA2F200E053
:1017100005E0B2FA82F2520095402F4307605B1C4D
:101720000A681546DA407FF470AF0020F0BD000073
:1017300030B5214C4568B1FBF4F425F03F05254355
:1017400045601E4DAA4207D94FF4967504FB05F477
:101750004FF47A75B4FBF5F4056A04F1010425F041
:101760003F0544EA0504046213D96BB102EBC204DD
:1017700004EB0212B1FBF2F4240508D0B1FBF2F144
:10178000194341F400410FE002EB4202F2E701216C
:10179000F6E75200B1FBF2F3C3F30B03042B01D2C3
:1017A000042101E0B1FBF2F1C2694CF6FF739A43E8
:1017B0000A43C26130BD000040420F00A086010014
:1017C0007FB5044600680D4620F0010020606846A1
:1017D00000F037F8D5E90301626A084322F01F02DE
:1017E00002436262D5E9012320460299FFF7A0FF78
:1017F000E9696869A26848F2FF339A4308430243E3
:10180000A2602868216821F01A0101432160206844
:1018100040F001002060A869216821F48061014343
:10182000216004B0002070BD4FF47A71B0FBF1F17B
:101830004FF0E020491E41610021816105210161D5
:10184000704710B5044600F013FA206000F0E6F986
:10185000606000F0F1F9A060606800F0FBF9E06002
:1018600010BD00000248006800F03F007047000013
:10187000043802400248006800F48000704700000D
:101880000438024002480068C0F388107047000026
:10189000043802400248006800F0E0407047000051
:1018A0000438024001490860704700000000002031
:1018B0007FB50446C0680D460126C0F34030C0BB6A
:1018C000E9686868AA690843296911430843E1681F
:1018D00049F20C6291430843E060A868216921F451
:1018E0004051014321616869616921F440710143FC
:1018F00061616846FFF7A5FF0F48844208D00F4892
:1019000084420DD00E4884420AD00E48844201D150
:10191000039906E00C48844202D00C48844208D166
:10192000029931B12B6823B100262046AA6900F044
:101930000FF804B0304670BD001001400044004074
:101940000048004000140140004C0040005000409E
:101950002DE9F04106461920A1FB00011F46002396
:1019600064243225B2F5004F27D0BB0FBA00FEF732
:10197000A5FC0146B0FBF4F06FF01802504301EBF8
:10198000800005EB0010B0FBF4F000F0F002B1FBBA
:10199000F4F002EB0012B1FBF4F06FF018035843BF
:1019A00001EB800005EB0010B0FBF4F000F00F003D
:1019B000104480B2B060BDE8F081FA195B41FEF7D7
:1019C0007DFC0146B0FBF4F00201B1FBF4F06FF0D6
:1019D0001803584301EB800005EBC000B0FBF4F0A6
:1019E00000F0F80002EB4002B1FBF4F0584301EBC9
:1019F000800005EBC000B0FBF4F000F00700D7E773
:101A000008B54FF0E0210A690092421C00D0401C4A
:101A10000A69D20300D5401E0028F9D108BD000094
:101A20002DE9F04188B000240694182168460794F7
:101A3000FEF757FD0420FFF777FD8020FFF774FDC8
:101A40000120FFF771FD0220FFF76EFDDFF8A48093
:101A50004FF40011C8F81810274902200326D1F8C6
:101A60000828F02393FAA3F3B3FA83F322F0F002E9
:101A700098400243C1F8082801278DF81C708DF8A2
:101A80001D4002204D148DF81E00069506A8FFF794
:101A900063FD1A48C16895FAA5F2B2FA82F25200C3
:101AA00006FA02F2914395FAA5F2B2FA82F25200D6
:101AB00004FA02F21143C160016895FAA5F2B2FA84
:101AC00082F25200964095FAA5F2B2FA82F25200E2
:101AD000B14304FA02F21143016020200090CDE9E5
:101AE00001740394694640460494FFF785FD08B0ED
:101AF000BDE8F081000002400C30014000080240C7
:101B000030B58FB020216846FEF7EBFC182108A8FD
:101B1000FEF7E7FC0220FFF707FD4FF44070089046
:101B20000220099003200A9001200025CDE90B0531
:101B300004200D9008A91448FFF75EFD4FF4001033
:101B4000FFF7FEFC114CE06820F00100E060206827
:101B500020F040002060206820F0800020600C48C9
:101B60000295CDE90050A6200590201506900001B1
:101B7000079069462046FFF723FEE06820F0FE004C
:101B8000E0600FB030BD000000040240005400408F
:101B9000A086010030B58DB01C216846FEF7A1FC7F
:101BA000182107A8FEF79DFC4FF40030FFF7C8FC92
:101BB0000120FFF7B9FC0C250220CDE907500320D6
:101BC0000024CDE909040720CDE90B4007A90F48FF
:101BD000FFF712FD4FF4E130CDE900040294CDE9A6
:101BE0000345059406940A4C69462046FFF760FEBB
:101BF000206920F490402061606920F02A00606133
:101C0000E06840F40050E0600DB030BD00000240DC
:101C100000440040FEE7FEE7704700000449096801
:101C2000044A01F0F0010909515CC8407047000006
:101C3000083802403E23000804490968044A01F4B8
:101C4000E05102EB91210978C84070470838024002
:101C50004E23000804490968044A01F4604102EB7C
:101C600051310978C8407047083802404E230008B7
:101C70000948006810F00C0108480AD0042907D070
:101C8000082907D00C2904D15FF00C0000F00AB835
:101C9000034870470820F9E7083802400024F400A0
:101CA00000127A0070B50546FFF7E4FD124C18B13A
:101CB000B0F5800F00D16410082D0CD0FFF7D2FDD5
:101CC000B4FBF0F4FFF7DEFD4443FFF7E3FD000F44
:101CD000B4FBF0F070BDFFF7C5FDB4FBF0F4FFF707
:101CE000D1FD444305480068012100F4403001EB78
:101CF00010404000ECE700000024F40004380240EB
:101D000070477047254810B5016821F00F01016048
:101D1000016811F00F0FFBD12148016821F4404107
:101D200041F480410160016821F4803101601D4867
:101D3000016821F0F80141F080010160016841F083
:101D4000010101600168C1F340010029FAD0154882
:101D50000830016821F0F0010160016821F4E051D0
:101D600041F480510160016821F460410160016823
:101D700021F003010160016811F00C0FFBD10A4C46
:101D80002046FFF751FD2046FFF78CFD05488C30BB
:101D9000016821F08071016010BD0000003C02402C
:101DA00000700040003802400024F400024801683E
:101DB00041F470010160704788ED00E030B5074ADA
:101DC0000021141D05E015682D06FCD52360491C73
:101DD000C9B2435C002BF6D130BD00000044004086
:101DE000FEE703B401984100009850EAC12018BFF3
:101DF00004204A0D18BF40F0010040F2FF72B2EB20
:101E0000515F08BF40F00200012808BF052002B062
:101E1000704730380A2801D20120704700207047EF
:101E20002DED028B4B4892B0016841F48041016076
:101E3000006800F4804000904FF08050FFF780FB76
:101E4000454908684FF6FF021040444A40F4E060FC
:101E500010430860FFF756FFFFF7E2FDFFF750FE63
:101E6000FFF798FE3E48016841F001010160FFF76D
:101E7000CCFA532108220846FFF72AFB9FED398B45
:101E80000DF1100900244D4604F13200C1B2532077
:101E9000FFF7DEFA2855641C062CF5DB9DF81000D0
:101EA0009DF811109DF8132000EB01209DF81210F1
:101EB00000B201EB02210CB29DF814109DF8152020
:101EC00001EB02210DB200F0A8F8B0EE481AF0EED6
:101ED000681A53EC112B00F0B7F800F06DF880464B
:101EE000204600F09AF8B0EE481AF0EE681A53EC6B
:101EF000112B00F0A9F800F05FF80446284600F026
:101F00008CF8B0EE481AF0EE681A53EC112B00F082
:101F10009BF800F051F800F095F906460F46204670
:101F200000F090F904460D46404600F08BF941EC74
:101F3000100B8DE8F00053EC102B0CA106A8FEF757
:101F400035FA06A8FFF73AFF4FF47A70FFF758FD0D
:101F500098E70000443802400CED00E00000FA056C
:101F600000540040DE718A8EE4F26F3F583A20251B
:101F70002E3266672C20593A20252E3266672C2097
:101F80005A3A20252E326667200D0A0010B5002926
:101F90000AD00878002807D005487844FEF726FEC6
:101FA000002801D0002010BD0248784410BD000078
:101FB000720400006A04000021F00042A2F16052A5
:101FC000B2F5801F01F0004328BFD2F17F6C0BD91E
:101FD0005FEA001C43EAC20242EB507018BF704730
:101FE00028BF20F001007047B2F5801FBCBF184623
:101FF00070474FEA410C1CF5001F02D2084600F062
:1020000097B970B500F0CAF800000089FFF7F6BF75
:102010004FF00040A0F58000704710F0004248BF2C
:102020004042B0FA80F310FA03F10AD0C3F11D0365
:1020300003F580634FEA415002EB035202EBD121DA
:1020400070474FF000007047DFF848C170B51CEAD8
:10205000111E1EBF1CEA13159EEA0C0F95EA0C0F09
:1020600000F06F8081EA030423EA4C134EEAD47E29
:1020700021EA4C1141F4801143F48013AE44A1FBDA
:10208000024CA0FB0365AEF17F7E361955EB0C05C3
:10209000A1FB034C4CF10003A0FB021C16EB0C0649
:1020A000654153F10003094218BF46F0010613F4DD
:1020B000007F0BD14FEA03314FEA0530340341EA88
:1020C000155140EA16506FF003020AE04FEAC321AF
:1020D0004FEAC520F40241EA555140EA56506FF0EC
:1020E000020202EB2E4201EB025585EACE710AD0C4
:1020F0005FEA440C18BF24F0004450F1000041F1A5
:10210000000120EAD47040F2FE7C624500D270BD2E
:10211000A84214BF4FF080444FF04044002E08BF47
:102120000024BEF1806FA8BFA1F1C041BDE870409E
:1021300080F282804FF0000001F1C04101F00041C7
:1021400070479EEA0C0F0CEA131518BF95EA0C0FA6
:1021500006D04FF0000081EA030E0EF0004170BD82
:1021600000F01CF88900013E00F007B800F009B843
:102170004FEA430C5FEA5C5C08D081EA030100F09F
:102180005BB84FEA410C5FEA5C5CF6D14FF00000AF
:10219000014970470000FF070000F87F0EF1020EB2
:1021A0002EF0030E5EF8046B364205D4012A43EB91
:1021B000030515F5001F12D8012841EB010C1CF591
:1021C000001F0CD80ED14FEAD17C15F5001F0CEB87
:1021D0004C0C0CF1020C08BF4CEBD37C04E04FF02C
:1021E000080C01E04FEAD37C0CEB4C0526FA05F60F
:1021F00006F00706B6F1040C06D20EEB860CBDE81D
:1022000070404CF0010C6047DFE80CF0090B020253
:102210004FF000414FF00000A1F5002170BD1946BC
:102220001046012851EB010418BFD4F5001484BFF7
:10223000002001F0004170BD0808A0F500114FEA30
:102240003101704743004FEAD30C4FEA3C0C434046
:102250001FBF40070CF1605113F0FE4F70471CF098
:10226000006F03D100200CF0004170470CF00043D8
:1022700043EA507010B540EACC0000F00EF800BF01
:10228000000000924FEA0001FFF7D6BF4FF0004177
:102290004FF00000A1F5002170470EF1020E2EF064
:1022A000030E5EF8044B244204D44FEA4102B2F11B
:1022B0007F4F11D84FEA4003B3F17F4F0CD80ED1B6
:1022C0004FEAD07CB2F17F4F0CEB4C0C0CF1020CBE
:1022D00008BF4CEBD17C04E04FF0080C01E04FEA62
:1022E000D17C0CEB4C0324FA03F404F00704B4F1A2
:1022F000040C06D20EEB840CBDE810404CF0010C2F
:102300006047DFE80CF0070802024FF00040A0F53C
:10231000800010BD0846420018BFD2F1807288BF0D
:1023200000F0004010BD4FF04070E1EE100A704721
:10233000FF2141EAD050C0057047FEF7D5B9000033
:102340000000000000000102030406070809000065
:10235000000001020304000002400000000000A091
:102360000000000005400000000000C80000000060
:102370000C4000000000409C0000000019400000DC
:102380000020BCBE0000000034400000BFC91B8E0E
:1023900000000004B5400000504BCFD06607E2CFEC
:1023A000010000006C4100003E8251AADFEEA7341C
:1023B00001000000D9420000DCB5A0E23A301F97CE
:1023C000FFFFFFFFB4450000FD25A0C8E9A3C14FF2
:1023D000FFFFFFFFFF3F0000000000800000000043
:1023E000FF3F0000000000800000000028240008DB
:1023F0000000002004000000000200082C24000857
:1024000004000020640600001C0200081C000000FC
:1024100043000000F8FFFFFF0C0000000E0000006A
:0C2420000F0000002E0000000024F4005B
:04000005080001C529
:00000001FF
